{
  "contractName": "SolnSquareVerifier",
  "abi": [
    {
      "constant": true,
      "inputs": [
        {
          "name": "interfaceId",
          "type": "bytes4"
        }
      ],
      "name": "supportsInterface",
      "outputs": [
        {
          "name": "",
          "type": "bool"
        }
      ],
      "payable": false,
      "stateMutability": "view",
      "type": "function"
    },
    {
      "constant": true,
      "inputs": [],
      "name": "name",
      "outputs": [
        {
          "name": "",
          "type": "string"
        }
      ],
      "payable": false,
      "stateMutability": "view",
      "type": "function"
    },
    {
      "constant": true,
      "inputs": [
        {
          "name": "tokenId",
          "type": "uint256"
        }
      ],
      "name": "getApproved",
      "outputs": [
        {
          "name": "",
          "type": "address"
        }
      ],
      "payable": false,
      "stateMutability": "view",
      "type": "function"
    },
    {
      "constant": false,
      "inputs": [
        {
          "name": "to",
          "type": "address"
        },
        {
          "name": "tokenId",
          "type": "uint256"
        }
      ],
      "name": "approve",
      "outputs": [],
      "payable": false,
      "stateMutability": "nonpayable",
      "type": "function"
    },
    {
      "constant": true,
      "inputs": [],
      "name": "totalSupply",
      "outputs": [
        {
          "name": "",
          "type": "uint256"
        }
      ],
      "payable": false,
      "stateMutability": "view",
      "type": "function"
    },
    {
      "constant": false,
      "inputs": [
        {
          "name": "from",
          "type": "address"
        },
        {
          "name": "to",
          "type": "address"
        },
        {
          "name": "tokenId",
          "type": "uint256"
        }
      ],
      "name": "transferFrom",
      "outputs": [],
      "payable": false,
      "stateMutability": "nonpayable",
      "type": "function"
    },
    {
      "constant": false,
      "inputs": [
        {
          "name": "_myid",
          "type": "bytes32"
        },
        {
          "name": "_result",
          "type": "string"
        }
      ],
      "name": "__callback",
      "outputs": [],
      "payable": false,
      "stateMutability": "nonpayable",
      "type": "function"
    },
    {
      "constant": true,
      "inputs": [
        {
          "name": "owner",
          "type": "address"
        },
        {
          "name": "index",
          "type": "uint256"
        }
      ],
      "name": "tokenOfOwnerByIndex",
      "outputs": [
        {
          "name": "",
          "type": "uint256"
        }
      ],
      "payable": false,
      "stateMutability": "view",
      "type": "function"
    },
    {
      "constant": false,
      "inputs": [
        {
          "name": "_myid",
          "type": "bytes32"
        },
        {
          "name": "_result",
          "type": "string"
        },
        {
          "name": "_proof",
          "type": "bytes"
        }
      ],
      "name": "__callback",
      "outputs": [],
      "payable": false,
      "stateMutability": "nonpayable",
      "type": "function"
    },
    {
      "constant": false,
      "inputs": [
        {
          "name": "to",
          "type": "address"
        },
        {
          "name": "tokenId",
          "type": "uint256"
        }
      ],
      "name": "mint",
      "outputs": [
        {
          "name": "",
          "type": "bool"
        }
      ],
      "payable": false,
      "stateMutability": "nonpayable",
      "type": "function"
    },
    {
      "constant": false,
      "inputs": [
        {
          "name": "from",
          "type": "address"
        },
        {
          "name": "to",
          "type": "address"
        },
        {
          "name": "tokenId",
          "type": "uint256"
        }
      ],
      "name": "safeTransferFrom",
      "outputs": [],
      "payable": false,
      "stateMutability": "nonpayable",
      "type": "function"
    },
    {
      "constant": true,
      "inputs": [
        {
          "name": "index",
          "type": "uint256"
        }
      ],
      "name": "tokenByIndex",
      "outputs": [
        {
          "name": "",
          "type": "uint256"
        }
      ],
      "payable": false,
      "stateMutability": "view",
      "type": "function"
    },
    {
      "constant": false,
      "inputs": [
        {
          "name": "addressAccount",
          "type": "address"
        }
      ],
      "name": "unpause",
      "outputs": [],
      "payable": false,
      "stateMutability": "nonpayable",
      "type": "function"
    },
    {
      "constant": true,
      "inputs": [
        {
          "name": "tokenId",
          "type": "uint256"
        }
      ],
      "name": "ownerOf",
      "outputs": [
        {
          "name": "",
          "type": "address"
        }
      ],
      "payable": false,
      "stateMutability": "view",
      "type": "function"
    },
    {
      "constant": true,
      "inputs": [
        {
          "name": "owner",
          "type": "address"
        }
      ],
      "name": "balanceOf",
      "outputs": [
        {
          "name": "",
          "type": "uint256"
        }
      ],
      "payable": false,
      "stateMutability": "view",
      "type": "function"
    },
    {
      "constant": false,
      "inputs": [
        {
          "name": "addressAccount",
          "type": "address"
        }
      ],
      "name": "pause",
      "outputs": [],
      "payable": false,
      "stateMutability": "nonpayable",
      "type": "function"
    },
    {
      "constant": true,
      "inputs": [],
      "name": "getOwner",
      "outputs": [
        {
          "name": "",
          "type": "address"
        }
      ],
      "payable": false,
      "stateMutability": "view",
      "type": "function"
    },
    {
      "constant": true,
      "inputs": [],
      "name": "symbol",
      "outputs": [
        {
          "name": "",
          "type": "string"
        }
      ],
      "payable": false,
      "stateMutability": "view",
      "type": "function"
    },
    {
      "constant": false,
      "inputs": [
        {
          "name": "to",
          "type": "address"
        },
        {
          "name": "approved",
          "type": "bool"
        }
      ],
      "name": "setApprovalForAll",
      "outputs": [],
      "payable": false,
      "stateMutability": "nonpayable",
      "type": "function"
    },
    {
      "constant": false,
      "inputs": [
        {
          "name": "from",
          "type": "address"
        },
        {
          "name": "to",
          "type": "address"
        },
        {
          "name": "tokenId",
          "type": "uint256"
        },
        {
          "name": "_data",
          "type": "bytes"
        }
      ],
      "name": "safeTransferFrom",
      "outputs": [],
      "payable": false,
      "stateMutability": "nonpayable",
      "type": "function"
    },
    {
      "constant": true,
      "inputs": [
        {
          "name": "tokenId",
          "type": "uint256"
        }
      ],
      "name": "tokenURI",
      "outputs": [
        {
          "name": "",
          "type": "string"
        }
      ],
      "payable": false,
      "stateMutability": "view",
      "type": "function"
    },
    {
      "constant": true,
      "inputs": [
        {
          "name": "owner",
          "type": "address"
        },
        {
          "name": "operator",
          "type": "address"
        }
      ],
      "name": "isApprovedForAll",
      "outputs": [
        {
          "name": "",
          "type": "bool"
        }
      ],
      "payable": false,
      "stateMutability": "view",
      "type": "function"
    },
    {
      "constant": false,
      "inputs": [
        {
          "name": "newOwner",
          "type": "address"
        }
      ],
      "name": "transferOwnership",
      "outputs": [],
      "payable": false,
      "stateMutability": "nonpayable",
      "type": "function"
    },
    {
      "inputs": [
        {
          "name": "name",
          "type": "string"
        },
        {
          "name": "symbol",
          "type": "string"
        },
        {
          "name": "verifierContractAddress",
          "type": "address"
        }
      ],
      "payable": false,
      "stateMutability": "nonpayable",
      "type": "constructor"
    },
    {
      "anonymous": false,
      "inputs": [
        {
          "indexed": false,
          "name": "indexSolution",
          "type": "uint256"
        },
        {
          "indexed": false,
          "name": "addressSender",
          "type": "address"
        },
        {
          "indexed": false,
          "name": "solutionsNumber",
          "type": "uint256"
        }
      ],
      "name": "SolutionAdded",
      "type": "event"
    },
    {
      "anonymous": false,
      "inputs": [
        {
          "indexed": false,
          "name": "addressOwner",
          "type": "address"
        },
        {
          "indexed": false,
          "name": "id",
          "type": "uint256"
        }
      ],
      "name": "NewTokenMinted",
      "type": "event"
    },
    {
      "anonymous": false,
      "inputs": [
        {
          "indexed": false,
          "name": "to",
          "type": "address"
        },
        {
          "indexed": false,
          "name": "tokenId",
          "type": "uint256"
        }
      ],
      "name": "TokenMinted",
      "type": "event"
    },
    {
      "anonymous": false,
      "inputs": [
        {
          "indexed": true,
          "name": "from",
          "type": "address"
        },
        {
          "indexed": true,
          "name": "to",
          "type": "address"
        },
        {
          "indexed": true,
          "name": "tokenId",
          "type": "uint256"
        }
      ],
      "name": "Transfer",
      "type": "event"
    },
    {
      "anonymous": false,
      "inputs": [
        {
          "indexed": true,
          "name": "owner",
          "type": "address"
        },
        {
          "indexed": true,
          "name": "approved",
          "type": "address"
        },
        {
          "indexed": true,
          "name": "tokenId",
          "type": "uint256"
        }
      ],
      "name": "Approval",
      "type": "event"
    },
    {
      "anonymous": false,
      "inputs": [
        {
          "indexed": true,
          "name": "owner",
          "type": "address"
        },
        {
          "indexed": true,
          "name": "operator",
          "type": "address"
        },
        {
          "indexed": false,
          "name": "approved",
          "type": "bool"
        }
      ],
      "name": "ApprovalForAll",
      "type": "event"
    },
    {
      "anonymous": false,
      "inputs": [
        {
          "indexed": false,
          "name": "addressAccount",
          "type": "address"
        }
      ],
      "name": "Paused",
      "type": "event"
    },
    {
      "anonymous": false,
      "inputs": [
        {
          "indexed": false,
          "name": "addressAccount",
          "type": "address"
        }
      ],
      "name": "Unpaused",
      "type": "event"
    },
    {
      "anonymous": false,
      "inputs": [
        {
          "indexed": false,
          "name": "oldOwner",
          "type": "address"
        },
        {
          "indexed": false,
          "name": "newOwner",
          "type": "address"
        }
      ],
      "name": "OwnershipTransferred",
      "type": "event"
    },
    {
      "constant": true,
      "inputs": [],
      "name": "getSolutions",
      "outputs": [
        {
          "name": "",
          "type": "uint256"
        }
      ],
      "payable": false,
      "stateMutability": "view",
      "type": "function"
    },
    {
      "constant": true,
      "inputs": [
        {
          "name": "tokenId",
          "type": "uint256"
        }
      ],
      "name": "getOwnerOf",
      "outputs": [
        {
          "name": "",
          "type": "address"
        }
      ],
      "payable": false,
      "stateMutability": "view",
      "type": "function"
    },
    {
      "constant": false,
      "inputs": [
        {
          "name": "a",
          "type": "uint256[2]"
        },
        {
          "name": "b",
          "type": "uint256[2][2]"
        },
        {
          "name": "c",
          "type": "uint256[2]"
        },
        {
          "name": "input",
          "type": "uint256[2]"
        }
      ],
      "name": "addSolution",
      "outputs": [],
      "payable": false,
      "stateMutability": "nonpayable",
      "type": "function"
    },
    {
      "constant": false,
      "inputs": [
        {
          "name": "a",
          "type": "uint256[2]"
        },
        {
          "name": "b",
          "type": "uint256[2][2]"
        },
        {
          "name": "c",
          "type": "uint256[2]"
        },
        {
          "name": "input",
          "type": "uint256[2]"
        },
        {
          "name": "to",
          "type": "address"
        },
        {
          "name": "tokenId",
          "type": "uint256"
        }
      ],
      "name": "mintNewToken",
      "outputs": [],
      "payable": false,
      "stateMutability": "nonpayable",
      "type": "function"
    }
  ],
  "bytecode": "0x608060405260006015553480156200001657600080fd5b5060405162003ea938038062003ea9833981018060405260608110156200003c57600080fd5b8101908080516401000000008111156200005557600080fd5b828101905060208101848111156200006c57600080fd5b81518560018202830111640100000000821117156200008a57600080fd5b50509291906020018051640100000000811115620000a757600080fd5b82810190506020810184811115620000be57600080fd5b8151856001820283011164010000000082111715620000dc57600080fd5b505092919060200180519060200190929190505050828281816040518060600160405280603f815260200162003e6a603f9139336000806101000a81548173ffffffffffffffffffffffffffffffffffffffff021916908373ffffffffffffffffffffffffffffffffffffffff16021790555060008060146101000a81548160ff021916908315150217905550620001816301ffc9a760e01b6200026360201b60201c565b620001996380ac58cd60e01b6200026360201b60201c565b620001b163780e9d6360e01b6200026360201b60201c565b82600f9080519060200190620001c992919062000303565b508160109080519060200190620001e292919062000303565b508060119080519060200190620001fb92919062000303565b5062000214635b5e139f60e01b6200026360201b60201c565b505050505080601360006101000a81548173ffffffffffffffffffffffffffffffffffffffff021916908373ffffffffffffffffffffffffffffffffffffffff160217905550505050620003b2565b63ffffffff60e01b817bffffffffffffffffffffffffffffffffffffffffffffffffffffffff191614156200029757600080fd5b6001806000837bffffffffffffffffffffffffffffffffffffffffffffffffffffffff19167bffffffffffffffffffffffffffffffffffffffffffffffffffffffff1916815260200190815260200160002060006101000a81548160ff02191690831515021790555050565b828054600181600116156101000203166002900490600052602060002090601f016020900481019282601f106200034657805160ff191683800117855562000377565b8280016001018555821562000377579182015b828111156200037657825182559160200191906001019062000359565b5b5090506200038691906200038a565b5090565b620003af91905b80821115620003ab57600081600090555060010162000391565b5090565b90565b613aa880620003c26000396000f3fe608060405234801561001057600080fd5b50600436106101a95760003560e01c806357b001f9116100f9578063a22cb46511610097578063e985e9c511610071578063e985e9c514610c1a578063ea30389114610c96578063f2fde38b14610e21578063f76b443114610e65576101a9565b8063a22cb46514610a1e578063b88d4fde14610a6e578063c87b56dd14610b73576101a9565b806376a67a51116100d357806376a67a511461089f57806383638710146108e3578063893d20e81461095157806395d89b411461099b576101a9565b806357b001f9146107955780636352211e146107d957806370a0823114610847576101a9565b806327dc297e1161016657806338bbfa501161014057806338bbfa501461052357806340c10f191461067f57806342842e0e146106e55780634f6ccce714610753576101a9565b806327dc297e146103de5780632f745c59146104a3578063367c5adc14610505576101a9565b806301ffc9a7146101ae57806306fdde0314610213578063081812fc14610296578063095ea7b31461030457806318160ddd1461035257806323b872dd14610370575b600080fd5b6101f9600480360360208110156101c457600080fd5b8101908080357bffffffffffffffffffffffffffffffffffffffffffffffffffffffff19169060200190929190505050610fc6565b604051808215151515815260200191505060405180910390f35b61021b61102e565b6040518080602001828103825283818151815260200191508051906020019080838360005b8381101561025b578082015181840152602081019050610240565b50505050905090810190601f1680156102885780820380516001836020036101000a031916815260200191505b509250505060405180910390f35b6102c2600480360360208110156102ac57600080fd5b81019080803590602001909291905050506110d0565b604051808273ffffffffffffffffffffffffffffffffffffffff1673ffffffffffffffffffffffffffffffffffffffff16815260200191505060405180910390f35b6103506004803603604081101561031a57600080fd5b81019080803573ffffffffffffffffffffffffffffffffffffffff1690602001909291908035906020019092919050505061110d565b005b61035a6112ed565b6040518082815260200191505060405180910390f35b6103dc6004803603606081101561038657600080fd5b81019080803573ffffffffffffffffffffffffffffffffffffffff169060200190929190803573ffffffffffffffffffffffffffffffffffffffff169060200190929190803590602001909291905050506112fa565b005b6104a1600480360360408110156103f457600080fd5b81019080803590602001909291908035906020019064010000000081111561041b57600080fd5b82018360208201111561042d57600080fd5b8035906020019184600183028401116401000000008311171561044f57600080fd5b91908080601f016020809104026020016040519081016040528093929190818152602001838380828437600081840152601f19601f82011690508083019250505050505050919291929050505061131d565b005b6104ef600480360360408110156104b957600080fd5b81019080803573ffffffffffffffffffffffffffffffffffffffff16906020019092919080359060200190929190505050611360565b6040518082815260200191505060405180910390f35b61050d6113d3565b6040518082815260200191505060405180910390f35b61067d6004803603606081101561053957600080fd5b81019080803590602001909291908035906020019064010000000081111561056057600080fd5b82018360208201111561057257600080fd5b8035906020019184600183028401116401000000008311171561059457600080fd5b91908080601f016020809104026020016040519081016040528093929190818152602001838380828437600081840152601f19601f820116905080830192505050505050509192919290803590602001906401000000008111156105f757600080fd5b82018360208201111561060957600080fd5b8035906020019184600183028401116401000000008311171561062b57600080fd5b91908080601f016020809104026020016040519081016040528093929190818152602001838380828437600081840152601f19601f8201169050808301925050505050505091929192905050506113dd565b005b6106cb6004803603604081101561069557600080fd5b81019080803573ffffffffffffffffffffffffffffffffffffffff169060200190929190803590602001909291905050506113e2565b604051808215151515815260200191505060405180910390f35b610751600480360360608110156106fb57600080fd5b81019080803573ffffffffffffffffffffffffffffffffffffffff169060200190929190803573ffffffffffffffffffffffffffffffffffffffff169060200190929190803590602001909291905050506114f7565b005b61077f6004803603602081101561076957600080fd5b8101908080359060200190929190505050611517565b6040518082815260200191505060405180910390f35b6107d7600480360360208110156107ab57600080fd5b81019080803573ffffffffffffffffffffffffffffffffffffffff16906020019092919050505061154b565b005b610805600480360360208110156107ef57600080fd5b8101908080359060200190929190505050611716565b604051808273ffffffffffffffffffffffffffffffffffffffff1673ffffffffffffffffffffffffffffffffffffffff16815260200191505060405180910390f35b6108896004803603602081101561085d57600080fd5b81019080803573ffffffffffffffffffffffffffffffffffffffff169060200190929190505050611753565b6040518082815260200191505060405180910390f35b6108e1600480360360208110156108b557600080fd5b81019080803573ffffffffffffffffffffffffffffffffffffffff1690602001909291905050506117a3565b005b61090f600480360360208110156108f957600080fd5b810190808035906020019092919050505061196f565b604051808273ffffffffffffffffffffffffffffffffffffffff1673ffffffffffffffffffffffffffffffffffffffff16815260200191505060405180910390f35b610959611981565b604051808273ffffffffffffffffffffffffffffffffffffffff1673ffffffffffffffffffffffffffffffffffffffff16815260200191505060405180910390f35b6109a36119aa565b6040518080602001828103825283818151815260200191508051906020019080838360005b838110156109e35780820151818401526020810190506109c8565b50505050905090810190601f168015610a105780820380516001836020036101000a031916815260200191505b509250505060405180910390f35b610a6c60048036036040811015610a3457600080fd5b81019080803573ffffffffffffffffffffffffffffffffffffffff169060200190929190803515159060200190929190505050611a4c565b005b610b7160048036036080811015610a8457600080fd5b81019080803573ffffffffffffffffffffffffffffffffffffffff169060200190929190803573ffffffffffffffffffffffffffffffffffffffff1690602001909291908035906020019092919080359060200190640100000000811115610aeb57600080fd5b820183602082011115610afd57600080fd5b80359060200191846001830284011164010000000083111715610b1f57600080fd5b91908080601f016020809104026020016040519081016040528093929190818152602001838380828437600081840152601f19601f820116905080830192505050505050509192919290505050611b86565b005b610b9f60048036036020811015610b8957600080fd5b8101908080359060200190929190505050611bac565b6040518080602001828103825283818151815260200191508051906020019080838360005b83811015610bdf578082015181840152602081019050610bc4565b50505050905090810190601f168015610c0c5780820380516001836020036101000a031916815260200191505b509250505060405180910390f35b610c7c60048036036040811015610c3057600080fd5b81019080803573ffffffffffffffffffffffffffffffffffffffff169060200190929190803573ffffffffffffffffffffffffffffffffffffffff169060200190929190505050611cdc565b604051808215151515815260200191505060405180910390f35b610e1f6004803603610180811015610cad57600080fd5b8101908080604001906002806020026040519081016040528092919082600260200280828437600081840152601f19601f82011690508083019250505050505091929192908060800190600280602002604051908101604052809291906000905b82821015610d62578382604002016002806020026040519081016040528092919082600260200280828437600081840152601f19601f82011690508083019250505050505081526020019060010190610d0e565b50505050919291929080604001906002806020026040519081016040528092919082600260200280828437600081840152601f19601f820116905080830192505050505050919291929080604001906002806020026040519081016040528092919082600260200280828437600081840152601f19601f8201169050808301925050505050509192919290803573ffffffffffffffffffffffffffffffffffffffff16906020019092919080359060200190929190505050611d70565b005b610e6360048036036020811015610e3757600080fd5b81019080803573ffffffffffffffffffffffffffffffffffffffff1690602001909291905050506120db565b005b610fc46004803603610140811015610e7c57600080fd5b8101908080604001906002806020026040519081016040528092919082600260200280828437600081840152601f19601f82011690508083019250505050505091929192908060800190600280602002604051908101604052809291906000905b82821015610f31578382604002016002806020026040519081016040528092919082600260200280828437600081840152601f19601f82011690508083019250505050505081526020019060010190610edd565b50505050919291929080604001906002806020026040519081016040528092919082600260200280828437600081840152601f19601f820116905080830192505050505050919291929080604001906002806020026040519081016040528092919082600260200280828437600081840152601f19601f820116905080830192505050505050919291929050505061231e565b005b600060016000837bffffffffffffffffffffffffffffffffffffffffffffffffffffffff19167bffffffffffffffffffffffffffffffffffffffffffffffffffffffff1916815260200190815260200160002060009054906101000a900460ff169050919050565b6060600f8054600181600116156101000203166002900480601f0160208091040260200160405190810160405280929190818152602001828054600181600116156101000203166002900480156110c65780601f1061109b576101008083540402835291602001916110c6565b820191906000526020600020905b8154815290600101906020018083116110a957829003601f168201915b5050505050905090565b60006003600083815260200190815260200160002060009054906101000a900473ffffffffffffffffffffffffffffffffffffffff169050919050565b600061111882611716565b90508073ffffffffffffffffffffffffffffffffffffffff168373ffffffffffffffffffffffffffffffffffffffff16141561119f576040517f08c379a000000000000000000000000000000000000000000000000000000000815260040180806020018281038252602a815260200180613a01602a913960400191505060405180910390fd5b8073ffffffffffffffffffffffffffffffffffffffff163373ffffffffffffffffffffffffffffffffffffffff1614806111e65750600115156111e28233611cdc565b1515145b61123b576040517f08c379a00000000000000000000000000000000000000000000000000000000081526004018080602001828103825260488152602001806139916048913960600191505060405180910390fd5b826003600084815260200190815260200160002060006101000a81548173ffffffffffffffffffffffffffffffffffffffff021916908373ffffffffffffffffffffffffffffffffffffffff160217905550818373ffffffffffffffffffffffffffffffffffffffff168273ffffffffffffffffffffffffffffffffffffffff167f8c5be1e5ebec7d5bd14f71427d1e84f3dd0314c0f7b2291e5b200ac8c7c3b92560405160405180910390a4505050565b6000600880549050905090565b611304338261252f565b61130d57600080fd5b6113188383836125c4565b505050565b61135c828260006040519080825280601f01601f1916602001820160405280156113565781602001600182028038833980820191505090505b506113dd565b5050565b600061136b83611753565b821061137657600080fd5b600660008473ffffffffffffffffffffffffffffffffffffffff1673ffffffffffffffffffffffffffffffffffffffff16815260200190815260200160002082815481106113c057fe5b9060005260206000200154905092915050565b6000601554905090565b505050565b60006113ec611981565b73ffffffffffffffffffffffffffffffffffffffff163373ffffffffffffffffffffffffffffffffffffffff161461146f576040517f08c379a00000000000000000000000000000000000000000000000000000000081526004018080602001828103825260318152602001806139356031913960400191505060405180910390fd5b61147983836125e8565b61148282612609565b7fb9144c96c86541f6fa89c9f2f02495cccf4b08cd6643e26d34ee00aa586558a88383604051808373ffffffffffffffffffffffffffffffffffffffff1673ffffffffffffffffffffffffffffffffffffffff1681526020018281526020019250505060405180910390a16001905092915050565b61151283838360405180602001604052806000815250611b86565b505050565b60006115216112ed565b821061152c57600080fd5b6008828154811061153957fe5b90600052602060002001549050919050565b6000809054906101000a900473ffffffffffffffffffffffffffffffffffffffff1673ffffffffffffffffffffffffffffffffffffffff163373ffffffffffffffffffffffffffffffffffffffff161461160d576040517f08c379a00000000000000000000000000000000000000000000000000000000081526004018080602001828103825260158152602001807f43616c6c6572206d757374206265206f776e657221000000000000000000000081525060200191505060405180910390fd5b60011515600060149054906101000a900460ff16151514611696576040517f08c379a00000000000000000000000000000000000000000000000000000000081526004018080602001828103825260138152602001807f436f6e747261637420697320706175736564210000000000000000000000000081525060200191505060405180910390fd5b60008060146101000a81548160ff0219169083151502179055507f5db9ee0a495bf2e6ff9c91a7834c1ba4fdd244a5e8aa4e537bd38aeae4b073aa81604051808273ffffffffffffffffffffffffffffffffffffffff1673ffffffffffffffffffffffffffffffffffffffff16815260200191505060405180910390a150565b60006002600083815260200190815260200160002060009054906101000a900473ffffffffffffffffffffffffffffffffffffffff169050919050565b600061179c600460008473ffffffffffffffffffffffffffffffffffffffff1673ffffffffffffffffffffffffffffffffffffffff168152602001908152602001600020612760565b9050919050565b6000809054906101000a900473ffffffffffffffffffffffffffffffffffffffff1673ffffffffffffffffffffffffffffffffffffffff163373ffffffffffffffffffffffffffffffffffffffff1614611865576040517f08c379a00000000000000000000000000000000000000000000000000000000081526004018080602001828103825260158152602001807f43616c6c6572206d757374206265206f776e657221000000000000000000000081525060200191505060405180910390fd5b60001515600060149054906101000a900460ff161515146118ee576040517f08c379a000000000000000000000000000000000000000000000000000000000815260040180806020018281038252601e8152602001807f436f6e74726163742073686f756c64206e6f742062652070617573656421000081525060200191505060405180910390fd5b6001600060146101000a81548160ff0219169083151502179055507f62e78cea01bee320cd4e420270b5ea74000d11b0c9f74754ebdbfc544b05a25881604051808273ffffffffffffffffffffffffffffffffffffffff1673ffffffffffffffffffffffffffffffffffffffff16815260200191505060405180910390a150565b600061197a82611716565b9050919050565b60008060009054906101000a900473ffffffffffffffffffffffffffffffffffffffff16905090565b606060108054600181600116156101000203166002900480601f016020809104026020016040519081016040528092919081815260200182805460018160011615610100020316600290048015611a425780601f10611a1757610100808354040283529160200191611a42565b820191906000526020600020905b815481529060010190602001808311611a2557829003601f168201915b5050505050905090565b3373ffffffffffffffffffffffffffffffffffffffff168273ffffffffffffffffffffffffffffffffffffffff161415611a8557600080fd5b80600560003373ffffffffffffffffffffffffffffffffffffffff1673ffffffffffffffffffffffffffffffffffffffff16815260200190815260200160002060008473ffffffffffffffffffffffffffffffffffffffff1673ffffffffffffffffffffffffffffffffffffffff16815260200190815260200160002060006101000a81548160ff0219169083151502179055508173ffffffffffffffffffffffffffffffffffffffff163373ffffffffffffffffffffffffffffffffffffffff167f17307eab39ab6107e8899845ad3d59bd9653f200f220920489ca2b5937696c3183604051808215151515815260200191505060405180910390a35050565b611b918484846112fa565b611b9d8484848461276e565b611ba657600080fd5b50505050565b6060611bb782612957565b611c29576040517f08c379a00000000000000000000000000000000000000000000000000000000081526004018080602001828103825260178152602001807f546f6b656e496420616c7265616479206578697374732100000000000000000081525060200191505060405180910390fd5b601260008381526020019081526020016000208054600181600116156101000203166002900480601f016020809104026020016040519081016040528092919081815260200182805460018160011615610100020316600290048015611cd05780601f10611ca557610100808354040283529160200191611cd0565b820191906000526020600020905b815481529060010190602001808311611cb357829003601f168201915b50505050509050919050565b6000600560008473ffffffffffffffffffffffffffffffffffffffff1673ffffffffffffffffffffffffffffffffffffffff16815260200190815260200160002060008373ffffffffffffffffffffffffffffffffffffffff1673ffffffffffffffffffffffffffffffffffffffff16815260200190815260200160002060009054906101000a900460ff16905092915050565b6000611d7e878787876129c9565b9050600015156014600083815260200190815260200160002060000160009054906101000a900460ff16151514611e1d576040517f08c379a00000000000000000000000000000000000000000000000000000000081526004018080602001828103825260208152602001807f546f6b656e2077617320616c7265616479206d696e746564206265666f72652181525060200191505060405180910390fd5b60011515601360009054906101000a900473ffffffffffffffffffffffffffffffffffffffff1673ffffffffffffffffffffffffffffffffffffffff1663621e9ec0898989896040518563ffffffff1660e01b81526004018085600260200280838360005b83811015611e9d578082015181840152602081019050611e82565b505050509050018460026000925b81841015611ef15782846020020151600260200280838360005b83811015611ee0578082015181840152602081019050611ec5565b505050509050019260010192611eab565b9250505083600260200280838360005b83811015611f1c578082015181840152602081019050611f01565b5050505090500182600260200280838360005b83811015611f4a578082015181840152602081019050611f2f565b50505050905001945050505050602060405180830381600087803b158015611f7157600080fd5b505af1158015611f85573d6000803e3d6000fd5b505050506040513d6020811015611f9b57600080fd5b8101908080519060200190929190505050151514612021576040517f08c379a000000000000000000000000000000000000000000000000000000000815260040180806020018281038252601c8152602001807f546f6b656e20636f756c64206e6f74206265207665726966696564210000000081525060200191505060405180910390fd5b61202d8787878761231e565b61203783836113e2565b5060016014600083815260200190815260200160002060000160006101000a81548160ff0219169083151502179055507f5dd00ffcb6618cfa61061cff0e31d2e5871199cfca7a136a4ada2dafa91ab9418383604051808373ffffffffffffffffffffffffffffffffffffffff1673ffffffffffffffffffffffffffffffffffffffff1681526020018281526020019250505060405180910390a150505050505050565b6000809054906101000a900473ffffffffffffffffffffffffffffffffffffffff1673ffffffffffffffffffffffffffffffffffffffff163373ffffffffffffffffffffffffffffffffffffffff161461219d576040517f08c379a00000000000000000000000000000000000000000000000000000000081526004018080602001828103825260158152602001807f43616c6c6572206d757374206265206f776e657221000000000000000000000081525060200191505060405180910390fd5b600073ffffffffffffffffffffffffffffffffffffffff163373ffffffffffffffffffffffffffffffffffffffff161415612223576040517f08c379a0000000000000000000000000000000000000000000000000000000008152600401808060200182810382526027815260200180613a566027913960400191505060405180910390fd5b7f8be0079c531659141344cd1fd0a4f28419497f9722a3daafe3b4186f6b6457e06000809054906101000a900473ffffffffffffffffffffffffffffffffffffffff1682604051808373ffffffffffffffffffffffffffffffffffffffff1673ffffffffffffffffffffffffffffffffffffffff1681526020018273ffffffffffffffffffffffffffffffffffffffff1673ffffffffffffffffffffffffffffffffffffffff1681526020019250505060405180910390a1806000806101000a81548173ffffffffffffffffffffffffffffffffffffffff021916908373ffffffffffffffffffffffffffffffffffffffff16021790555050565b600061232c858585856129c9565b905060006014600083815260200190815260200160002060010154146123ba576040517f08c379a00000000000000000000000000000000000000000000000000000000081526004018080602001828103825260178152602001807f536f6c7574696f6e206973206e6f7420756e697175652100000000000000000081525060200191505060405180910390fd5b6040518060600160405280600015158152602001601460008481526020019081526020016000206001015481526020013373ffffffffffffffffffffffffffffffffffffffff168152506014600083815260200190815260200160002060008201518160000160006101000a81548160ff0219169083151502179055506020820151816001015560408201518160020160006101000a81548173ffffffffffffffffffffffffffffffffffffffff021916908373ffffffffffffffffffffffffffffffffffffffff1602179055509050506015600081548092919060010191905055507fba1403a9b9df2b184867a255459e3d62a15a9590eb8b37e755a879b9d9082607601460008381526020019081526020016000206001015433601554604051808481526020018373ffffffffffffffffffffffffffffffffffffffff1673ffffffffffffffffffffffffffffffffffffffff168152602001828152602001935050505060405180910390a15050505050565b60008061253b83611716565b90508073ffffffffffffffffffffffffffffffffffffffff168473ffffffffffffffffffffffffffffffffffffffff1614806125aa57508373ffffffffffffffffffffffffffffffffffffffff16612592846110d0565b73ffffffffffffffffffffffffffffffffffffffff16145b806125bb57506125ba8185611cdc565b5b91505092915050565b6125cf838383612ad7565b6125d98382612d32565b6125e38282612ed0565b505050565b6125f28282612f97565b6125fc8282612ed0565b61260581613198565b5050565b61261281612957565b612684576040517f08c379a00000000000000000000000000000000000000000000000000000000081526004018080602001828103825260178152602001807f546f6b656e496420616c7265616479206578697374732100000000000000000081525060200191505060405180910390fd5b606061268f826131e4565b905061273560118054600181600116156101000203166002900480601f01602080910402602001604051908101604052809291908181526020018280546001816001161561010002031660029004801561272a5780601f106126ff5761010080835404028352916020019161272a565b820191906000526020600020905b81548152906001019060200180831161270d57829003601f168201915b505050505082613311565b60126000848152602001908152602001600020908051906020019061275b929190613863565b505050565b600081600001549050919050565b600061278f8473ffffffffffffffffffffffffffffffffffffffff16613355565b61279c576001905061294f565b60008473ffffffffffffffffffffffffffffffffffffffff1663150b7a02338887876040518563ffffffff1660e01b8152600401808573ffffffffffffffffffffffffffffffffffffffff1673ffffffffffffffffffffffffffffffffffffffff1681526020018473ffffffffffffffffffffffffffffffffffffffff1673ffffffffffffffffffffffffffffffffffffffff16815260200183815260200180602001828103825283818151815260200191508051906020019080838360005b8381101561287757808201518184015260208101905061285c565b50505050905090810190601f1680156128a45780820380516001836020036101000a031916815260200191505b5095505050505050602060405180830381600087803b1580156128c657600080fd5b505af11580156128da573d6000803e3d6000fd5b505050506040513d60208110156128f057600080fd5b8101908080519060200190929190505050905063150b7a0260e01b7bffffffffffffffffffffffffffffffffffffffffffffffffffffffff1916817bffffffffffffffffffffffffffffffffffffffffffffffffffffffff1916149150505b949350505050565b6000806002600084815260200190815260200160002060009054906101000a900473ffffffffffffffffffffffffffffffffffffffff169050600073ffffffffffffffffffffffffffffffffffffffff168173ffffffffffffffffffffffffffffffffffffffff161415915050919050565b6000848484846040516020018085600260200280838360005b838110156129fd5780820151818401526020810190506129e2565b505050509050018460026000925b81841015612a515782846020020151600260200280838360005b83811015612a40578082015181840152602081019050612a25565b505050509050019260010192612a0b565b9250505083600260200280838360005b83811015612a7c578082015181840152602081019050612a61565b5050505090500182600260200280838360005b83811015612aaa578082015181840152602081019050612a8f565b50505050905001945050505050604051602081830303815290604052805190602001209050949350505050565b612ae081611716565b73ffffffffffffffffffffffffffffffffffffffff168373ffffffffffffffffffffffffffffffffffffffff1614612b63576040517f08c379a000000000000000000000000000000000000000000000000000000000815260040180806020018281038252602b815260200180613a2b602b913960400191505060405180910390fd5b600073ffffffffffffffffffffffffffffffffffffffff168273ffffffffffffffffffffffffffffffffffffffff161415612be9576040517f08c379a000000000000000000000000000000000000000000000000000000000815260040180806020018281038252602b815260200180613966602b913960400191505060405180910390fd5b612bf2816133a0565b612c39600460008573ffffffffffffffffffffffffffffffffffffffff1673ffffffffffffffffffffffffffffffffffffffff16815260200190815260200160002061345e565b612c80600460008473ffffffffffffffffffffffffffffffffffffffff1673ffffffffffffffffffffffffffffffffffffffff168152602001908152602001600020613481565b816002600083815260200190815260200160002060006101000a81548173ffffffffffffffffffffffffffffffffffffffff021916908373ffffffffffffffffffffffffffffffffffffffff160217905550808273ffffffffffffffffffffffffffffffffffffffff168473ffffffffffffffffffffffffffffffffffffffff167fddf252ad1be2c89b69c2b068fc378daa952ba7f163c4a11628f55a4df523b3ef60405160405180910390a4505050565b6000612d8a6001600660008673ffffffffffffffffffffffffffffffffffffffff1673ffffffffffffffffffffffffffffffffffffffff1681526020019081526020016000208054905061349790919063ffffffff16565b9050600060076000848152602001908152602001600020549050818114612e77576000600660008673ffffffffffffffffffffffffffffffffffffffff1673ffffffffffffffffffffffffffffffffffffffff1681526020019081526020016000208381548110612df757fe5b9060005260206000200154905080600660008773ffffffffffffffffffffffffffffffffffffffff1673ffffffffffffffffffffffffffffffffffffffff1681526020019081526020016000208381548110612e4f57fe5b9060005260206000200181905550816007600083815260200190815260200160002081905550505b600660008573ffffffffffffffffffffffffffffffffffffffff1673ffffffffffffffffffffffffffffffffffffffff168152602001908152602001600020805480919060019003612ec991906138e3565b5050505050565b600660008373ffffffffffffffffffffffffffffffffffffffff1673ffffffffffffffffffffffffffffffffffffffff168152602001908152602001600020805490506007600083815260200190815260200160002081905550600660008373ffffffffffffffffffffffffffffffffffffffff1673ffffffffffffffffffffffffffffffffffffffff1681526020019081526020016000208190806001815401808255809150509060018203906000526020600020016000909192909190915055505050565b600073ffffffffffffffffffffffffffffffffffffffff168273ffffffffffffffffffffffffffffffffffffffff16141561301d576040517f08c379a00000000000000000000000000000000000000000000000000000000081526004018080602001828103825260288152602001806139d96028913960400191505060405180910390fd5b6000151561302a82612957565b15151461309f576040517f08c379a000000000000000000000000000000000000000000000000000000000815260040180806020018281038252601d8152602001807f476976656e20546f6b656e496420616c7265616479206578697374732100000081525060200191505060405180910390fd5b816002600083815260200190815260200160002060006101000a81548173ffffffffffffffffffffffffffffffffffffffff021916908373ffffffffffffffffffffffffffffffffffffffff160217905550613138600460008473ffffffffffffffffffffffffffffffffffffffff1673ffffffffffffffffffffffffffffffffffffffff168152602001908152602001600020613481565b808273ffffffffffffffffffffffffffffffffffffffff16600073ffffffffffffffffffffffffffffffffffffffff167fddf252ad1be2c89b69c2b068fc378daa952ba7f163c4a11628f55a4df523b3ef60405160405180910390a45050565b6008805490506009600083815260200190815260200160002081905550600881908060018154018082558091505090600182039060005260206000200160009091929091909150555050565b6060600082141561322c576040518060400160405280600181526020017f3000000000000000000000000000000000000000000000000000000000000000815250905061330c565b600082905060005b60008214613256578080600101915050600a828161324e57fe5b049150613234565b6060816040519080825280601f01601f19166020018201604052801561328b5781602001600182028038833980820191505090505b50905060006001830390505b6000861461330457600a86816132a957fe5b0660300160f81b828280600190039350815181106132c357fe5b60200101907effffffffffffffffffffffffffffffffffffffffffffffffffffffffffffff1916908160001a905350600a86816132fc57fe5b049550613297565b819450505050505b919050565b606061334d83836040518060200160405280600081525060405180602001604052806000815250604051806020016040528060008152506134e1565b905092915050565b60008060007fc5d2460186f7233c927e7db2dcc703c0e500b653ca82273b7bfad8045d85a47060001b9050833f915080821415801561339757506000801b8214155b92505050919050565b600073ffffffffffffffffffffffffffffffffffffffff166003600083815260200190815260200160002060009054906101000a900473ffffffffffffffffffffffffffffffffffffffff1673ffffffffffffffffffffffffffffffffffffffff161461345b5760006003600083815260200190815260200160002060006101000a81548173ffffffffffffffffffffffffffffffffffffffff021916908373ffffffffffffffffffffffffffffffffffffffff1602179055505b50565b6134766001826000015461349790919063ffffffff16565b816000018190555050565b6001816000016000828254019250508190555050565b60006134d983836040518060400160405280601e81526020017f536166654d6174683a207375627472616374696f6e206f766572666c6f7700008152506137a3565b905092915050565b6060808690506060869050606086905060608690506060869050606081518351855187518951010101016040519080825280601f01601f19166020018201604052801561353d5781602001600182028038833980820191505090505b509050606081905060008090506000809050600090505b88518110156135c25788818151811061356957fe5b602001015160f81c60f81b83838060010194508151811061358657fe5b60200101907effffffffffffffffffffffffffffffffffffffffffffffffffffffffffffff1916908160001a9053508080600101915050613554565b600090505b8751811015613635578781815181106135dc57fe5b602001015160f81c60f81b8383806001019450815181106135f957fe5b60200101907effffffffffffffffffffffffffffffffffffffffffffffffffffffffffffff1916908160001a90535080806001019150506135c7565b600090505b86518110156136a85786818151811061364f57fe5b602001015160f81c60f81b83838060010194508151811061366c57fe5b60200101907effffffffffffffffffffffffffffffffffffffffffffffffffffffffffffff1916908160001a905350808060010191505061363a565b600090505b855181101561371b578581815181106136c257fe5b602001015160f81c60f81b8383806001019450815181106136df57fe5b60200101907effffffffffffffffffffffffffffffffffffffffffffffffffffffffffffff1916908160001a90535080806001019150506136ad565b600090505b845181101561378e5784818151811061373557fe5b602001015160f81c60f81b83838060010194508151811061375257fe5b60200101907effffffffffffffffffffffffffffffffffffffffffffffffffffffffffffff1916908160001a9053508080600101915050613720565b82995050505050505050505095945050505050565b6000838311158290613850576040517f08c379a00000000000000000000000000000000000000000000000000000000081526004018080602001828103825283818151815260200191508051906020019080838360005b838110156138155780820151818401526020810190506137fa565b50505050905090810190601f1680156138425780820380516001836020036101000a031916815260200191505b509250505060405180910390fd5b5060008385039050809150509392505050565b828054600181600116156101000203166002900490600052602060002090601f016020900481019282601f106138a457805160ff19168380011785556138d2565b828001600101855582156138d2579182015b828111156138d15782518255916020019190600101906138b6565b5b5090506138df919061390f565b5090565b81548183558181111561390a57818360005260206000209182019101613909919061390f565b5b505050565b61393191905b8082111561392d576000816000905550600101613915565b5090565b9056fe4f6e6c7920636f6e7472616374206f776e65722063616e2063616c6c20746865206d696e7428292d66756e6374696f6e21546f6b656e206d757374206265207472616e7366657272656420746f2076616c696420616464726573732153656e646572206d75737420626520746865206f776e6572206f662074686520636f6e7472616374206f72206974206d75737420626520617070726f76656420666f7220616c6c21496e707574746564206164647265737320666f72206d696e74696e6720697320696e76616c6964214163636f756e7420697320616c726561647920746865206f776e6572206f662074686520746f6b656e2146726f6d2061646472657373206973206e6f7420746865206f776e6572206f662074686520746f6b656e2153656e646572206d75737420646973706f7365206f6620612076616c6964206164647265737321a165627a7a7230582025f23af5b85dc3d1f2b611ca3c221308b9cb9e57812949befa1b5f6141f8f397002968747470733a2f2f73332d75732d776573742d322e616d617a6f6e6177732e636f6d2f756461636974792d626c6f636b636861696e2f63617073746f6e652f",
  "source": "pragma solidity >=0.5.0;\n//pragma solidity >=0.4.21 <0.6.0;\n\nimport \"./ERC721Mintable.sol\";\n\n// TODO INTERFACE - define a contract call to the zokrates generated solidity contract <Verifier> or <renamedVerifier>\ncontract Verifier {\n    function verifyTx(\n        uint[2] memory a,\n        uint[2][2] memory b,\n        uint[2] memory c, \n        uint[2] memory input\n    ) public returns(bool r);\n}\n\n// TODO define another contract named SolnSquareVerifier that inherits from your ERC721Mintable class\ncontract SolnSquareVerifier is CustomERC721Token {\n\n    //Safe way to keep track of number of solutons submitted (see ERC721Mintable.sol)\n    //using SafeMath for uint256;\n\n    //Create variable of type Verifier for communication with verifier.sol\n    Verifier private verifier;\n\n    constructor(string memory name, string memory symbol, address verifierContractAddress) public CustomERC721Token(name, symbol) {\n        \n        //Initialize state variable\n        verifier = Verifier(verifierContractAddress);\n    }\n\n    // TODO define a solutions struct that can hold an index & an address\n    struct Solution {\n        bool minted; // additionally tracking minting process\n        uint256 index;\n        address sender;\n    }\n\n    // TODO define a mapping to store unique solutions submitted\n    mapping(bytes32 => Solution) private submittedSolutions;\n\n    //To count the added solutions\n    uint256 numberSolutions = 0;\n\n    // TODO Create an event to emit when a solution is added \n    event SolutionAdded(uint256 indexSolution, address addressSender, uint256 solutionsNumber);\n    event NewTokenMinted(address addressOwner, uint256 id);\n\n    //Utility function - generate unique solution key\n    function getSolutionKey\n                        (\n                            uint[2] memory a,\n                            uint[2][2] memory b,\n                            uint[2] memory c, \n                            uint[2] memory input\n                        )\n                        internal\n                        returns(bytes32) \n    {\n        return keccak256(abi.encodePacked(a, b, c, input));\n    }\n\n    //Utility function - get number of submitted solutions\n    function getSolutions() public view returns(uint256){\n        return numberSolutions;\n    } \n\n    //Utility function - get owner of tokenId\n    function getOwnerOf(uint256 tokenId) public view returns(address) {\n        return super.ownerOf(tokenId);\n    }\n    \n    // TODO Create a function to add the solutions to the mapping and emit the event\n    function addSolution\n                    (\n                        uint[2] memory a,\n                        uint[2][2] memory b,\n                        uint[2] memory c, \n                        uint[2] memory input\n                    ) \n                    public \n    {\n    \n        /*Define an encoded key for the solutions-mapping in order to verify \n        the uniqueness of all submitted solutions (see FlightSuretyproject - Flightregistration)*/\n        bytes32 solutionKey = getSolutionKey(a, b, c, input);\n        require(submittedSolutions[solutionKey].index == 0,'Solution is not unique!');\n\n        //Adding solutions to solutions mapping \n        submittedSolutions[solutionKey] = Solution({\n            minted: false,\n            index: submittedSolutions[solutionKey].index,\n            sender: msg.sender\n        });\n\n        numberSolutions++;\n        emit SolutionAdded(submittedSolutions[solutionKey].index, msg.sender, numberSolutions);\n    }\n\n\n    // TODO Create a function to mint new NFT (Non-Fungible-Token) only after the solution has been verified\n    //  - make sure the solution is unique (has not been used before)\n    //  - make sure you handle metadata as well as tokenSupply\n    function mintNewToken\n                    (\n                        uint[2] memory a,\n                        uint[2][2] memory b,\n                        uint[2] memory c, \n                        uint[2] memory input,\n                        address to,\n                        uint256 tokenId\n                    ) \n                    public \n    {\n\n        //Generate unique key to retreive data structure in mapping\n        bytes32 solutionKey = getSolutionKey(a,b,c,input);\n\n        //Check verification and if token was already minted!\n        require(submittedSolutions[solutionKey].minted == false, 'Token was already minted before!');\n        require(verifier.verifyTx(a,b,c,input) == true, 'Token could not be verified!');\n\n        //Function call to add new solution to mapping and setting minted status on true\n        addSolution(a, b, c, input);\n\n        //Mint token by accessing the mint function in the parents-class (by using super-keyword)\n        super.mint(to, tokenId);\n\n        submittedSolutions[solutionKey].minted = true;\n        emit NewTokenMinted(to, tokenId);\n\n    }\n\n}\n\n\n  \n\n\n\n\n\n\n\n\n\n\n\n\n\n\n\n\n\n\n\n\n\n\n\n\n\n\n",
  "sourcePath": "/Users/PWR/Documents/Udacity/Blockchain-Capstone/eth-contracts/contracts/SolnSquareVerifier.sol",
  "compiler": {
    "name": "solc",
    "version": "0.5.6+commit.b259423e.Emscripten.clang"
  },
  "schemaVersion": "3.3.1",
  "updatedAt": "2020-11-14T17:14:47.311Z",
  "networkType": "ethereum",
  "devdoc": {
    "methods": {
      "isApprovedForAll(address,address)": {
        "details": "Tells whether an operator is approved by a given owner",
        "params": {
          "operator": "operator address which you want to query the approval of",
          "owner": "owner address which you want to query the approval of"
        },
        "return": "bool whether the given operator is approved by the given owner"
      },
      "setApprovalForAll(address,bool)": {
        "details": "Sets or unsets the approval of a given operator An operator is allowed to transfer all tokens of the sender on their behalf",
        "params": {
          "approved": "representing the status of the approval to be set",
          "to": "operator address to set the approval"
        }
      },
      "supportsInterface(bytes4)": {
        "details": "implement supportsInterface(bytes4) using a lookup table"
      },
      "tokenByIndex(uint256)": {
        "details": "Gets the token ID at a given index of all the tokens in this contract Reverts if the index is greater or equal to the total number of tokens",
        "params": {
          "index": "uint256 representing the index to be accessed of the tokens list"
        },
        "return": "uint256 token ID at the given index of the tokens list"
      },
      "tokenOfOwnerByIndex(address,uint256)": {
        "details": "Gets the token ID at a given index of the tokens list of the requested owner",
        "params": {
          "index": "uint256 representing the index to be accessed of the requested tokens list",
          "owner": "address owning the tokens list to be accessed"
        },
        "return": "uint256 token ID at the given index of the tokens list owned by the requested address"
      },
      "totalSupply()": {
        "details": "Gets the total amount of tokens stored by the contract",
        "return": "uint256 representing the total amount of tokens"
      }
    }
  },
  "userdoc": {
    "methods": {}
  }
}